:020000040800F2
:1000000000500020211D0008FD1A0008051B0008F3
:100010000D1B0008151B00081D1B00080000000038
:10002000000000000000000000000000251B000888
:10003000311B0008000000003D1B0008491B0008A0
:10004000691D0008691D0008691D0008691D000878
:10005000691D0008691D0008691D0008691D000868
:10006000691D0008691D0008691D0008691D000858
:10007000691D0008691D0008691D0008691D000848
:10008000691D0008691D0008691D0008691D000838
:10009000691D0008691D0008691D0008691D000828
:1000A000691D0008691D0008691D0008691D000818
:1000B000691D0008691D0008691D0008691D000808
:1000C000691D0008691D0008691D0008551B00080E
:1000D000691B00087D1B0008691D0008691D0008D8
:1000E000691D0008691D0008691D00080000000066
:1000F0000000000000000000000000000000000000
:0C01000000000000000000005FF808F1A3
:1001100010B5054C237833B9044B13B10448AFF341
:1001200000800123237010BDE801002000000000C2
:10013000CCA6000808B5034B1BB103490348AFF335
:10014000008008BD00000000EC010020CCA60008E3
:10015000034613F8012B002AFBD1181A0138704707
:1001600081F0004102E000BF83F0004330B54FEA68
:1001700041044FEA430594EA050F08BF90EA020FD5
:100180001FBF54EA000C55EA020C7FEA645C7FEA68
:10019000655C00F0E2804FEA5454D4EB5555B8BF8B
:1001A0006D420CDD2C4480EA020281EA030382EAFC
:1001B000000083EA010180EA020281EA0303362D8E
:1001C00088BF30BD11F0004F4FEA01314FF4801C61
:1001D0004CEA113102D0404261EB410113F0004F73
:1001E0004FEA03334CEA133302D0524263EB43032A
:1001F00094EA050F00F0A780A4F10104D5F1200EC8
:100200000DDB02FA0EFC22FA05F2801841F1000122
:1002100003FA0EF2801843FA05F359410EE0A5F1F6
:1002200020050EF1200E012A03FA0EFC28BF4CF027
:10023000020C43FA05F3C01851EBE37101F00045DD
:1002400007D54FF0000EDCF1000C7EEB00006EEBEA
:100250000101B1F5801F1BD3B1F5001F0CD3490874
:100260005FEA30004FEA3C0C04F101044FEA4452CB
:1002700012F5800F80F09A80BCF1004F08BF5FEA52
:10028000500C50F1000041EB045141EA050130BD32
:100290005FEA4C0C404141EB0101013C28BFB1F544
:1002A000801FE9D291F0000F04BF01460020B1FA8F
:1002B00081F308BF2033A3F10B03B3F120020CDA62
:1002C0000C3208DD02F1140CC2F10C0201FA0CF040
:1002D00021FA02F10CE002F11402D8BFC2F1200CA5
:1002E00001FA02F120FA0CFCDCBF41EA0C0190405B
:1002F000E41AA2BF01EB0451294330BD6FEA0404A4
:100300001F3C1CDA0C340EDC04F11404C4F120028E
:1003100020FA04F001FA02F340EA030021FA04F3A0
:1003200045EA030130BDC4F10C04C4F1200220FAF7
:1003300002F001FA04F340EA0300294630BD21FA35
:1003400004F0294630BD94F0000F83F4801306BFFB
:1003500081F480110134013D4EE77FEA645C18BFEF
:100360007FEA655C29D094EA050F08BF90EA020F86
:1003700005D054EA000C04BF1946104630BD91EA7E
:10038000030F1EBF0021002030BD5FEA545C05D181
:100390004000494128BF41F0004130BD14F58004C0
:1003A0003CBF01F5801130BD01F0004545F0FE4134
:1003B00041F470014FF0000030BD7FEA645C1ABF69
:1003C000194610467FEA655C1CBF0B46024650EAA0
:1003D000013406BF52EA033591EA030F41F40021CC
:1003E00030BD00BF90F0000F04BF0021704730B552
:1003F0004FF4806404F132044FF000054FF0000127
:1004000050E700BF90F0000F04BF0021704730B5E7
:100410004FF4806404F1320410F0004548BF4042BC
:100420004FF000013EE700BF42004FEAE2014FEA11
:1004300031014FEA02701FBF12F07F4393F07F4FEC
:1004400081F06051704732F07F4208BF704793F0EF
:100450007F4F04BF41F40021704730B54FF4607402
:1004600001F0004521F000411CE700BF50EA010205
:1004700008BF704730B54FF000050AE050EA0102AE
:1004800008BF704730B511F0004502D5404261EB1E
:1004900041014FF4806404F132045FEA915C3FF45F
:1004A000D8AE4FF003025FEADC0C18BF03325FEAFC
:1004B000DC0C18BF033202EBDC02C2F1200300FAAD
:1004C00003FC20FA02F001FA03FE40EA0E0021FAD2
:1004D00002F11444BDE600BF70B54FF0FF0C4CF4C0
:1004E000E06C1CEA11541DBF1CEA135594EA0C0F72
:1004F00095EA0C0F00F0DEF82C4481EA030621EAAD
:100500004C5123EA4C5350EA013518BF52EA0335E7
:1005100041F4801143F4801338D0A0FB02CE4FF099
:100520000005E1FB02E506F00042E0FB03E54FF0C9
:100530000006E1FB03569CF0000F18BF4EF0010EC1
:10054000A4F1FF04B6F5007F64F5407404D25FEABD
:100550004E0E6D4146EB060642EAC62141EA555170
:100560004FEAC52040EA5E504FEACE2EB4F1FD0CB2
:1005700088BFBCF5E06F1ED8BEF1004F08BF5FEA30
:10058000500E50F1000041EB045170BD06F00046E2
:1005900046EA010140EA020081EA0301B4EB5C048F
:1005A000C2BFD4EB0C0541EA045170BD41F4801187
:1005B0004FF0000E013C00F3AB8014F1360FDEBFAC
:1005C000002001F0004170BDC4F10004203C35DA88
:1005D0000C341BDC04F11404C4F1200500FA05F30B
:1005E00020FA04F001FA05F240EA020001F00042AC
:1005F00021F0004110EBD37021FA04F642EB060122
:100600005EEA430E08BF20EAD37070BDC4F10C044B
:10061000C4F1200500FA04F320FA05F001FA04F20F
:1006200040EA020001F0004110EBD37041F10001FB
:100630005EEA430E08BF20EAD37070BDC4F1200506
:1006400000FA05F24EEA020E20FA04F301FA05F26E
:1006500043EA020321FA04F001F0004121FA04F216
:1006600020EA020000EBD3705EEA430E08BF20EAE6
:10067000D37070BD94F0000F0FD101F00046400020
:1006800041EB010111F4801F08BF013CF7D041EAA2
:10069000060195F0000F18BF704703F000465200A6
:1006A00043EB030313F4801F08BF013DF7D043EA77
:1006B0000603704794EA0C0F0CEA135518BF95EA2D
:1006C0000C0F0CD050EA410618BF52EA4306D1D1B4
:1006D00081EA030101F000414FF0000070BD50EAD3
:1006E000410606BF1046194652EA430619D094EA5D
:1006F0000C0F02D150EA013613D195EA0C0F05D147
:1007000052EA03361CBF104619460AD181EA03019A
:1007100001F0004141F0FE4141F470014FF0000052
:1007200070BD41F0FE4141F4780170BD70B54FF0ED
:10073000FF0C4CF4E06C1CEA11541DBF1CEA13556D
:1007400094EA0C0F95EA0C0F00F0A7F8A4EB05044F
:1007500081EA030E52EA03354FEA013100F0888046
:100760004FEA03334FF0805545EA131343EA12630F
:100770004FEA022245EA111545EA10654FEA0026C4
:100780000EF000419D4208BF964244F1FD0404F57D
:10079000407402D25B084FEA3202B61A65EB0305D9
:1007A0005B084FEA32024FF480104FF4002CB6EB96
:1007B000020E75EB030E22BFB61A754640EA0C0016
:1007C0005B084FEA3202B6EB020E75EB030E22BF56
:1007D000B61A754640EA5C005B084FEA3202B6EB97
:1007E000020E75EB030E22BFB61A754640EA9C0056
:1007F0005B084FEA3202B6EB020E75EB030E22BF26
:10080000B61A754640EADC0055EA060E18D04FEAE3
:10081000051545EA16754FEA06164FEAC30343EA83
:1008200052734FEAC2025FEA1C1CC0D111F4801F50
:100830000BD141EA00014FF000004FF0004CB6E749
:1008400011F4801F04BF01430020B4F1FD0C88BFE8
:10085000BCF5E06F3FF6AFAEB5EB030C04BFB6EBF3
:10086000020C5FEA500C50F1000041EB045170BDE6
:100870000EF0004E4EEA113114EB5C04C2BFD4EB13
:100880000C0541EA045170BD41F480114FF0000E97
:10089000013C90E645EA060E8DE60CEA135594EA13
:1008A0000C0F08BF95EA0C0F3FF43BAF94EA0C0F16
:1008B0000AD150EA01347FF434AF95EA0C0F7FF48B
:1008C00025AF104619462CE795EA0C0F06D152EADF
:1008D00003353FF4FDAE1046194622E750EA4106C3
:1008E00018BF52EA43067FF4C5AE50EA41047FF4D4
:1008F0000DAF52EA43057FF4EBAE12E74FF0FF3C39
:1009000006E000BF4FF0010C02E000BF4FF0010C09
:100910004DF804CD4FEA410C7FEA6C5C4FEA430C82
:1009200018BF7FEA6C5C1BD001B050EA410C0CBFD1
:1009300052EA430C91EA030F02BF90EA020F002033
:10094000704710F1000F91EA030F58BF994208BF9A
:1009500090422CBFD8176FEAE37040F00100704757
:100960004FEA410C7FEA6C5C02D150EA013C07D1AE
:100970004FEA430C7FEA6C5CD6D152EA033CD3D0F9
:100980005DF8040B704700BF8446104662468C46F3
:100990001946634600E000BF01B5FFF7B7FF002826
:1009A00048BF10F1000F01BD4DF808EDFFF7F4FF4F
:1009B0000CBF012000205DF808FB00BF4DF808EDDA
:1009C000FFF7EAFF34BF012000205DF808FB00BFFD
:1009D0004DF808EDFFF7E0FF94BF012000205DF81F
:1009E00008FB00BF4DF808EDFFF7CEFF94BF0120D4
:1009F00000205DF808FB00BF4DF808EDFFF7C4FFCD
:100A000034BF012000205DF808FB00BF4FEA410C15
:100A10007FEA6C5C02D150EA013C0AD14FEA430CF8
:100A20007FEA6C5C02D152EA033C02D14FF0000035
:100A300070474FF0010070474FEA410212F5001273
:100A400015D211D56FF47873B3EB625212D94FEA15
:100A5000C12343F0004343EA505311F0004F23FAFF
:100A600002F018BF404270474FF00000704750EA54
:100A7000013005D111F0004008BF6FF00040704711
:100A80004FF00000704700BF4A0011D212F500126B
:100A900011D20DD56FF47873B3EB62520ED44FEAD6
:100AA000C12343F0004343EA505323FA02F0704756
:100AB0004FF00000704750EA013002D14FF0FF3094
:100AC00070474FF0000070474FEA4102B2F1E04337
:100AD00024BFB3F5001CDCF1FE5C0DD901F0004C25
:100AE0004FEAC0024CEA5070B2F1004F40EB830075
:100AF00008BF20F00100704711F0804F21D113F1A1
:100B00003872BCBF01F00040704741F480114FEAD9
:100B10005252C2F11802C2F1200C10FA0CF320FA62
:100B200002F018BF40F001004FEAC1234FEAD3237F
:100B300003FA0CFC40EA0C0023FA02F34FEA4303E9
:100B4000CCE77FEA625307D150EA01331EBF4FF072
:100B5000FE4040F44000704701F0004040F0FE408D
:100B600040F40000704700BF80F0004002E000BF8A
:100B700081F0004142001FBF5FEA410392EA030F88
:100B80007FEA226C7FEA236C6AD04FEA1262D2EBD2
:100B90001363C1BFD218414048404140B8BF5B42D7
:100BA000192B88BF704710F0004F40F4000020F070
:100BB0007F4018BF404211F0004F41F4000121F086
:100BC0007F4118BF494292EA030F3FD0A2F10102D0
:100BD00041FA03FC10EB0C00C3F1200301FA03F10E
:100BE00000F0004302D5494260EB4000B0F5000F31
:100BF00013D3B0F1807F06D340084FEA310102F1F0
:100C00000102FE2A51D2B1F1004F40EBC25008BFA1
:100C100020F0010040EA03007047490040EB00006B
:100C2000013A28BFB0F5000FEDD2B0FA80FCACF16C
:100C3000080CB2EB0C0200FA0CF0AABF00EBC25099
:100C400052421843BCBFD0401843704792F0000F87
:100C500081F4000106BF80F400000132013BB5E7DA
:100C60004FEA41037FEA226C18BF7FEA236C21D050
:100C700092EA030F04D092F0000F08BF08467047B5
:100C800090EA010F1CBF0020704712F07F4F04D183
:100C9000400028BF40F00040704712F100723CBF96
:100CA00000F50000704700F0004343F0FE4040F4C0
:100CB000000070477FEA226216BF08467FEA23637E
:100CC0000146420206BF5FEA412390EA010F40F469
:100CD000800070474FF0000304E000BF10F00043B5
:100CE00048BF40425FEA000C08BF704743F096439C
:100CF00001464FF000001CE050EA010208BF7047B7
:100D00004FF000030AE000BF50EA010208BF70473D
:100D100011F0004302D5404261EB41015FEA010C52
:100D200002BF84460146002043F0B64308BFA3F14A
:100D30008053A3F50003BCFA8CF2083AA3EBC2532C
:100D400010DB01FA02FC634400FA02FCC2F120024B
:100D5000BCF1004F20FA02F243EB020008BF20F082
:100D60000100704702F1200201FA02FCC2F12002E8
:100D700050EA4C0021FA02F243EB020008BF20EADD
:100D8000DC7070474FF0FF0C1CEAD0521EBF1CEA0B
:100D9000D15392EA0C0F93EA0C0F6FD01A4480EAF9
:100DA000010C400218BF5FEA41211ED04FF00063E2
:100DB00043EA501043EA5111A0FB01310CF000400E
:100DC000B1F5000F3EBF490041EAD3715B0040EA34
:100DD000010062F17F02FD2A1DD8B3F1004F40EB04
:100DE000C25008BF20F00100704790F0000F0CF0D7
:100DF000004C08BF49024CEA502040EA51207F3A9B
:100E0000C2BFD2F1FF0340EAC250704740F4000075
:100E10004FF00003013A5DDC12F1190FDCBF00F066
:100E200000407047C2F10002410021FA02F1C2F114
:100E3000200200FA02FC5FEA310040F1000053EAB0
:100E40004C0308BF20EADC70704792F0000F00F0FE
:100E5000004C02BF400010F4000F013AF9D040EA04
:100E60000C0093F0000F01F0004C02BF490011F498
:100E7000000F013BF9D041EA0C018FE70CEAD15396
:100E800092EA0C0F18BF93EA0C0F0AD030F0004C16
:100E900018BF31F0004CD8D180EA010000F00040CA
:100EA000704790F0000F17BF90F0004F084691F088
:100EB000000F91F0004F14D092EA0C0F01D14202C2
:100EC0000FD193EA0C0F03D14B0218BF084608D18B
:100ED00080EA010000F0004040F0FE4040F40000D5
:100EE000704740F0FE4040F4400070474FF0FF0C68
:100EF0001CEAD0521EBF1CEAD15392EA0C0F93EAAF
:100F00000C0F69D0A2EB030280EA010C49024FEA00
:100F1000402037D04FF0805343EA111143EA1013B9
:100F20000CF000408B4238BF5B0042F17D024FF471
:100F3000000C8B4224BF5B1A40EA0C00B3EB510F4C
:100F400024BFA3EB510340EA5C00B3EB910F24BF35
:100F5000A3EB910340EA9C00B3EBD10F24BFA3EBBA
:100F6000D10340EADC001B0118BF5FEA1C1CE0D182
:100F7000FD2A3FF650AF8B4240EBC25008BF20F035
:100F8000010070470CF0004C4CEA50207F32C2BF89
:100F9000D2F1FF0340EAC250704740F400004FF026
:100FA0000003013A37E792F0000F00F0004C02BF57
:100FB000400010F4000F013AF9D040EA0C0093F021
:100FC000000F01F0004C02BF490011F4000F013B7B
:100FD000F9D041EA0C0195E70CEAD15392EA0C0FE3
:100FE00008D142027FF47DAF93EA0C0F7FF470AF1B
:100FF000084676E793EA0C0F04D14B023FF44CAF5E
:1010000008466EE730F0004C18BF31F0004CCAD1F2
:1010100030F000427FF45CAF31F000437FF43CAF2E
:101020005FE700BF4FEA4002B2F1FE4F0FD34FF02F
:101030009E03B3EB12620DD94FEA002343F0004345
:1010400010F0004F23FA02F018BF404270474FF0F3
:101050000000704712F1610F01D1420205D110F07A
:10106000004008BF6FF0004070474FF0000070472D
:1010700042000ED2B2F1FE4F0BD34FF09E03B3EB02
:10108000126209D44FEA002343F0004323FA02F02E
:1010900070474FF00000704712F1610F01D142021A
:1010A00002D14FF0FF3070474FF00000704700BF93
:1010B00038B50022002304460D46FFF77FFC28B90F
:1010C00020462946BDE8384000F00AB8204605F120
:1010D000004100F005F8404261EB410138BD00BF1E
:1010E000D0B500220B4B06460F46FFF7F5F9FFF788
:1010F000CBFC0446FFF776F90022074BFFF7ECF92B
:1011000002460B4630463946FFF72EF8FFF7BCFC87
:101110002146D0BD0000F03D0000F04180B500AF99
:1011200008496A2004F0ACFA0749682004F0A8FADC
:10113000044B1A88054B1A82034B1A88034BDA8139
:1011400000BF80BD0402002006020020080200202B
:1011500080B400AF00BFBD4680BC704780B500AF13
:101160000C49502004F08CFA0A4B1B88013B9BB2BF
:101170007F2B02D9074B01221A80064B1A88064B97
:101180001A80044B1B88DBB2184604F093FD00BFA5
:1011900080BD00BF2C0200200802002080B500AFF7
:1011A0001221194804F01AFE184B1B681846FFF765
:1011B0005FFF03469AB2144B5A80154B1A88124BA4
:1011C000DA80124B5B681846FFF752FF03469AB26B
:1011D0000D4B1A810E4B5A880B4B9A810D4B1A8876
:1011E000094B1A82084B1A880B4B1B889A4209D06C
:1011F000054B1A88084B1A80074B1B88194650204C
:1012000004F012FA00BF80BD080200204C0200204A
:10121000480200202E0200202C02002080B500AFE2
:101220004FF48053044A0549054804F096FE0448EB
:1012300004F0B0FE00BF80BD000C01403803002068
:101240003002002080B500AF1D4BB3F900301D4ABD
:10125000934204DA1A4B4EF66C621A800AE0184B7D
:10126000B3F9003041F29312934203DD144B41F283
:1012700094121A80124BB3F900301846FFF72EFD76
:10128000034611491846FFF775FC03460F491846F7
:10129000FFF778FD03460E491846FFF727FE034681
:1012A0001846FFF7E5FE03469AB20A4B1A80094B2F
:1012B0001B881946084804F081FE00BF80BD00BFAE
:1012C000480200206DEEFFFF00A08C4500FF7F4725
:1012D00000A00C462E0200203002002090B583B002
:1012E00000AF1023154A1649164804F009FA0023E6
:1012F000FB711AE0FB791946124804F016FA03460E
:10130000BB80FA7913469B0013449B000E4A9C183D
:10131000BB881846FFF7DEFC03460C4A0C49204602
:1013200004F014F9FB790133FB71FB79012BE1D94E
:1013300000BF00BF0C37BD4690BD00BF0008014094
:10134000E00200203C020020580200200000484239
:101350000AD7A33B98B500AF0021384804F0E5F95F
:1013600003461A46364B1A80354B1B881846FFF742
:10137000B1FC03461946334804F001F90346324AEA
:101380001360314B1C68314B9B881846FFF7A6FC55
:10139000034619462046FFF7EBFB03462C49184647
:1013A000FFF7F0FC03462B491846FFF79FFD034665
:1013B00029491846FFF7E6FC03461846FFF732FEB8
:1013C00003461AB2254B1A8001211C4804F0ADF9DE
:1013D00003461A461A4B5A80194B5B881846FFF78A
:1013E00079FC034619461E4804F0C9F80346164A1C
:1013F0005360154B5C68154B5B891846FFF76EFC14
:10140000034619462046FFF7B3FB0346104918462A
:10141000FFF7B8FC03460F491846FFF767FD034680
:101420000D491846FFF7AEFC03461846FFF7FAFDD4
:1014300003461AB2094B5A8000BF98BD3C020020F7
:1014400054020020580200204C0200200802002014
:101450000000B44300F07F450000C842480200206D
:101460006C02002080B584B000AF786000F0D6FC3C
:10147000F8607B681B68FA68D21A7B685B689A42DE
:1014800004D37B68FA681A60012300E00023184641
:101490001037BD4680BD000080B500AF00F066FC8F
:1014A00000F032F800F056F900F0BCF800F072F8E5
:1014B00000F09EF800F024F900F0EAF8FFF72EFEA5
:1014C000FFF74CFEFFF70AFFFFF7A8FE0B4802F0FC
:1014D00082F8FFF763FE0A48FFF7C4FF0346002BBC
:1014E00001D0FFF737FF0748FFF7BCFF0346002B8B
:1014F00001D0FFF7A7FEFFF72BFEE7E7D40200209D
:10150000000000200800002080B590B000AF07F177
:10151000180328220021184605F0FEFC3B1D00227E
:101520001A605A609A60DA601A610923BB614FF44D
:101530008033FB6100233B620123BB6201233B63D9
:1015400002237B634FF48033BB630023FB6307F10B
:101550001803184602F04EF80346002B01D000F0A5
:101560005BF90F237B600223BB609023FB600023A9
:101570003B614FF480637B613B1D0121184602F003
:10158000BBFA0346002B01D000F046F900BF4037FC
:10159000BD4680BD80B500AF124B134A1A60114B97
:1015A000124A5A600F4B00229A600E4B0022DA60FA
:1015B0000C4B4FF480421A610A4B00225A61094BCE
:1015C00000229A61074B0022DA61064B00221A6260
:1015D000044800F089FF0346002B01D000F01CF9FD
:1015E00000BF80BD8002002000540040A0860100A2
:1015F00080B500AF094B0A4A1A60084B00225A60B6
:10160000064B40F6FF729A60044801F0A0FF0346C3
:10161000002B01D000F000F900BF80BDD4020020F3
:101620000030004080B500AF174B184A1A60164BC7
:101630004FF482725A60144B00229A60124B0022BF
:10164000DA60114B00221A610F4B00225A610E4BD7
:101650004FF400729A610C4B3822DA610A4B002277
:101660001A62094B00225A62074B00229A62064B0B
:101670000A22DA62044802F0CFFB0346002B01D0B5
:1016800000F0CAF800BF80BDE00200200030014039
:1016900080B500AF184B194A1A60174B4FF482728D
:1016A0005A60154B4FF400429A60134B0022DA60E7
:1016B000114B00221A61104B01225A610E4B4FF45C
:1016C00000729A610C4B1822DA610B4B00221A62ED
:1016D000094B00225A62084B00229A62064B0A22EA
:1016E000DA62054802F098FB0346002B01D000F0B7
:1016F00093F800BF80BD00BF3803002000380040D1
:1017000080B500AF114B124A1A60104B4FF41652BD
:101710005A600E4B00229A600C4B0022DA600B4B91
:1017200000221A61094B0C225A61084B00229A616F
:10173000064B0022DA61054803F09DF80346002BB2
:1017400001D000F069F800BF80BD00BF9003002009
:101750000038014080B588B000AF07F110030022C7
:101760001A605A609A60DA60284B9B69274A43F0F6
:1017700020039361254B9B6903F02003FB60FB680A
:10178000224B9B69214A43F0040393611F4B9B69E1
:1017900003F00403BB60BB681C4B9B691B4A43F00E
:1017A00008039361194B9B6903F008037B607B6816
:1017B00000224FF48871164800F07EFE002241F2AC
:1017C0000441144800F078FE4FF488733B61012314
:1017D0007B610023BB610223FB6107F11003194603
:1017E0000B4800F0E5FC41F204433B6101237B61BF
:1017F0000023BB610223FB6107F110031946054872
:1018000000F0D6FC00BF2037BD4680BD001002406E
:1018100000080140000C014080B400AF72B600BF68
:1018200000BFFDE780B485B000AF154B9B69144A3B
:1018300043F001039361124B9B6903F00103BB600A
:10184000BB680F4BDB690E4A43F08053D3610C4BEE
:10185000DB6903F080537B607B680A4B5B68FB604D
:10186000FB6823F0E063FB60FB6843F00073FB6000
:10187000044AFB68536000BF1437BD4680BC704704
:10188000001002400000014080B58AB000AF7860CF
:1018900007F1140300221A605A609A60DA607B68CC
:1018A0001B681D4A934232D11C4B9B691B4A43F073
:1018B00008039361194B9B6903F008033B613B6983
:1018C0004FF440737B611223BB6103233B6207F13A
:1018D00014031946124800F06BFC124B5B687B62E4
:1018E0007B6A43F0E0637B627B6A43F002037B62C6
:1018F0000C4A7B6A5360094BDB69084A43F40013C6
:10190000D361064BDB6903F40013FB60FB6800BF87
:101910002837BD4680BD00BF005400400010024083
:10192000000C01400000014080B58AB000AF786033
:1019300007F1180300221A605A609A60DA607B6827
:101940001B683F4A934244D13E4B9B693D4A43F456
:10195000805393613B4B9B6903F480537B617B69AC
:10196000384B9B69374A43F004039361354B9B69BD
:1019700003F004033B613B692023BB610223FB614D
:1019800003237B6207F1180319462F4800F010FC6F
:101990004023BB610023FB6100233B6207F1180376
:1019A0001946294800F004FC8023BB610223FB6137
:1019B00002237B6207F118031946234800F0F8FB65
:1019C00000220021232000F00AFB232000F023FB4B
:1019D00031E07B681B681D4A93422CD1194BDB69AF
:1019E000184A43F48043D361164BDB6903F4804308
:1019F000FB60FB68134B9B69124A43F00803936139
:101A0000104B9B6903F00803BB60BB684FF4204395
:101A1000BB610223FB6103237B6207F118031946B4
:101A20000B4800F0C5FB00220021242000F0D7FA6B
:101A3000242000F0F0FA00BF2837BD4680BD00BF6B
:101A40000030014000100240000801400038004012
:101A5000000C014080B588B000AF786007F110033A
:101A600000221A605A609A60DA607B681B68204A1C
:101A7000934239D11F4B9B691E4A43F480439361C3
:101A80001C4B9B6903F48043FB60FB68194B9B690B
:101A9000184A43F004039361164B9B6903F0040357
:101AA000BB60BB684FF400733B6102237B6103237F
:101AB000FB6107F1100319460F4800F079FB4FF462
:101AC00080633B6100237B610023BB6107F110034E
:101AD0001946094800F06CFB00220021252000F087
:101AE0007EFA252000F097FA00BF2037BD4680BD62
:101AF00000380140001002400008014080B400AFEF
:101B000000BFFDE780B400AF00BFFDE780B400AFC9
:101B100000BFFDE780B400AF00BFFDE780B400AFB9
:101B200000BFFDE780B400AF00BFBD4680BC70477A
:101B300080B400AF00BFBD4680BC704780B400AF2A
:101B400000BFBD4680BC704780B500AF00F054F9BF
:101B500000BF80BD80B500AF024802F0CFFC00BFDF
:101B600080BD00BFE002002080B500AF024802F057
:101B7000C5FC00BF80BD00BF3803002080B500AFAA
:101B8000024802F079FF00BF80BD00BF9003002033
:101B900080B400AF01231846BD4680BC704780B5B5
:101BA00082B000AF7860396005F008FA034616226B
:101BB0001A604FF0FF3318460837BD4680BD80B528
:101BC00082B000AF78604FF0FF317868FFF7E7FF31
:101BD00000BFFDE780B586B000AFF860B9607A60FD
:101BE00000237B610AE0AFF300800146BB685A1C0A
:101BF000BA60CAB21A707B6901337B617A697B680B
:101C00009A42F0DB7B6818461837BD4680BD80B528
:101C100086B000AFF860B9607A6000237B6109E0AC
:101C2000BB685A1CBA601B781846AFF300807B690A
:101C300001337B617A697B689A42F1DB7B681846E5
:101C40001837BD4680BD80B483B000AF78604FF0D8
:101C5000FF3318460C37BD4680BC704780B483B054
:101C600000AF786039603B684FF400525A6000233F
:101C700018460C37BD4680BC704780B483B000AFB7
:101C80007860012318460C37BD4680BC704780B48D
:101C900085B000AFF860B9607A6000231846143749
:101CA000BD4680BC7047000080B586B000AF78604C
:101CB000144A154BD31A7B617B693B61134B1B683C
:101CC000002B02D1114B124A1A60104B1A687B6824
:101CD00013443A699A4207D205F070F903460C2280
:101CE0001A604FF0FF3309E0084B1B68FB60074B9D
:101CF0001A687B681344054A1360FB681846183756
:101D0000BD4680BD0050002000040000D803002024
:101D10001806002080B400AF00BFBD4680BC7047ED
:101D2000FFF7F8FF0B480C490C4A002302E0D45897
:101D3000C4500433C4188C42F9D3094A094C002317
:101D400001E013600432A242FBD305F03DF9FFF736
:101D5000A3FB704700000020E801002054AB0008FE
:101D6000E801002018060020FEE7000080B500AF63
:101D7000084B1B68074A43F010031360032000F070
:101D800023F90F2000F008F8FFF74CFD0023184658
:101D900080BD00BF0020024080B582B000AF7860F7
:101DA000124B1A68124B1B7819464FF47A73B3FB27
:101DB000F1F3B2FBF3F3184600F03BF90346002BB6
:101DC00001D001230EE07B680F2B0AD8002279682E
:101DD0004FF0FF3000F003F9064A7B6813600023E0
:101DE00000E0012318460837BD4680BD10000020E2
:101DF000180000201400002080B400AF054B1B78B1
:101E00001A46054B1B681344034A136000BFBD46C6
:101E100080BC704718000020DC03002080B400AFB5
:101E2000024B1B681846BD4680BC7047DC0300208F
:101E300080B485B000AF78607B6803F00703FB6077
:101E40000C4BDB68BB60BA684FF6FF031340BB6006
:101E5000FB681A02BB68134343F0BF6343F40033CB
:101E6000BB60044ABB68D36000BF1437BD4680BC6A
:101E7000704700BF00ED00E080B400AF044BDB68AA
:101E80001B0A03F007031846BD4680BC704700BF1D
:101E900000ED00E080B483B000AF0346FB7197F91A
:101EA0000730002B0BDBFB7903F01F02064997F983
:101EB00007305B09012000FA02F241F8232000BF3D
:101EC0000C37BD4680BC704700E100E080B483B0B1
:101ED00000AF03463960FB7197F90730002B0ADB2E
:101EE0003B68DAB20C4997F907301201D2B20B44C1
:101EF00083F800230AE03B68DAB20849FB7903F073
:101F00000F03043B1201D2B20B441A7600BF0C3708
:101F1000BD4680BC704700BF00E100E000ED00E07E
:101F200080B489B000AFF860B9607A60FB6803F0F4
:101F30000703FB61FB69C3F10703042B28BF0423DC
:101F4000BB61FB690433062B02D9FB69033B00E04C
:101F500000237B614FF0FF32BB6902FA03F3DA43DF
:101F6000BB681A407B699A404FF0FF317B6901FAE8
:101F700003F3D9437B680B40134318462437BD460F
:101F800080BC704780B582B000AF78607B68013B51
:101F9000B3F1807F01D301230FE00A4A7B68013B44
:101FA00053600F214FF0FF30FFF790FF054B0022E9
:101FB0009A60044B07221A60002318460837BD4672
:101FC00080BD00BF10E000E080B582B000AF786057
:101FD0007868FFF72DFF00BF0837BD4680BD80B58C
:101FE00086B000AF0346B9607A60FB7300237B6163
:101FF000FFF742FF78617A68B9687869FFF790FF68
:10200000024697F90F3011461846FFF75FFF00BFF1
:102010001837BD4680BD80B582B000AF0346FB7166
:1020200097F907301846FFF735FF00BF0837BD4660
:1020300080BD80B582B000AF78607868FFF7A2FFFE
:10204000034618460837BD4680BD80B485B000AF52
:1020500078600023FB737B6893F82130DBB2022B9E
:1020600008D07B6804229A637B68002283F82020D2
:10207000012320E07B681B681A687B681B6822F0DC
:102080000E021A607B681B681A687B681B6822F066
:1020900001021A607B681A6C7B68DB6B012101FA14
:1020A00002F25A607B68012283F821207B680022BB
:1020B00083F82020FB7B18461437BD4680BC704750
:1020C00080B584B000AF78600023FB737B6893F821
:1020D0002130DBB2022B05D07B6804229A630123F6
:1020E000FB7351E07B681B681A687B681B6822F0F1
:1020F0000E021A607B681B681A687B681B6822F0F6
:1021000001021A607B681B68224A934229D07B68CF
:102110001B68214A934222D07B681B681F4A934266
:102120001AD07B681B681E4A934212D07B681B68DA
:102130001C4A93420AD07B681B681B4A934202D117
:102140004FF480130EE04FF080730BE04FF48033B8
:1021500008E04FF4805305E04FF4807302E0102351
:1021600000E00123114A53607B68012283F821209B
:102170007B68002283F820207B685B6B002B03D0F8
:102180007B685B6B78689847FB7B18461037BD46C9
:1021900080BD00BF080002401C0002403000024029
:1021A00044000240580002406C000240000002401F
:1021B00080B48BB000AF7860396000237B6200236D
:1021C0003B6269E101227B6A02FA03F3FB613B682F
:1021D0001B68FA691340BB61BA69FB699A4240F017
:1021E00058813B685B689A4A93425ED0984A934212
:1021F00075D8984A934258D0964A93426FD8964AD7
:10220000934252D0944A934269D8944A93424CD014
:10221000924A934263D8924A934246D0904A93425C
:102220005DD8122B2AD8122B59D801A252F823F0CC
:10223000AB2200088522000897220008D922000856
:10224000DF220008DF220008DF220008DF2200086A
:10225000DF220008DF220008DF220008DF2200085A
:10226000DF220008DF220008DF220008DF2200084A
:10227000DF2200088D220008A1220008794A93423B
:1022800013D02CE03B68DB683B6229E03B68DB68ED
:1022900004333B6224E03B68DB6808333B621FE0A9
:1022A0003B68DB680C333B621AE03B689B68002BA1
:1022B00002D104233B6213E03B689B68012B05D1EC
:1022C00008233B627B68FA691A6109E008233B62D4
:1022D0007B68FA695A6103E000233B6200E000BFBB
:1022E000BB69FF2B01D87B6801E07B6804337B610D
:1022F000BB69FF2B02D87B6A9B0002E07B6A083B2C
:102300009B003B617B691A680F213B6901FA03F36B
:10231000DB431A40396A3B6901FA03F31A437B69CC
:102320001A603B685B6803F08053002B00F0B180BB
:102330004D4B9B694C4A43F0010393614A4B9B69A7
:1023400003F00103BB60BB68484A7B6A9B08023309
:1023500052F82330FB607B6A03F003039B000F22DB
:1023600002FA03F3DB43FA681340FB607B68404AE0
:10237000934213D07B683F4A93420DD07B683E4A1C
:10238000934207D07B683D4A934201D1032306E084
:10239000042304E0022302E0012300E000237A6A20
:1023A00002F0030292009340FA681343FB602F4946
:1023B0007B6A9B080233FA6841F823203B685B681C
:1023C00003F48013002B06D02D4B9A682C49BB696F
:1023D00013438B6006E02A4B9A68BB69DB432849AC
:1023E00013408B603B685B6803F40013002B06D03E
:1023F000234BDA682249BB691343CB6006E0204BCC
:10240000DA68BB69DB431E491340CB603B685B68FD
:1024100003F40033002B06D0194B5A681849BB69E6
:1024200013434B6006E0164B5A68BB69DB43144903
:1024300013404B603B685B6803F48033002B21D072
:102440000F4B1A680E49BB6913430B6021E000BFB4
:102450000000321000003110000022100000211096
:102460000000121000001110001002400000014096
:1024700000080140000C0140001001400014014020
:10248000000401400B4B1A68BB69DB430949134048
:102490000B607B6A01337B623B681A687B6A22FAB5
:1024A00003F3002B7FF48EAE00BF00BF2C37BD4678
:1024B00080BC70470004014080B483B000AF7860F6
:1024C0000B467B8013467B707B78002B03D07A8889
:1024D0007B681A6103E07B881A047B681A6100BF7D
:1024E0000C37BD4680BC704780B584B000AF7860C3
:1024F0007B68002B01D101232BE17B6893F83D30F1
:10250000DBB2002B06D17B68002283F83C20786880
:10251000FFF7BAF97B68242283F83D207B681B68AB
:102520001A687B681B6822F001021A607B681B68CE
:102530001A687B681B6842F400421A607B681B685B
:102540001A687B681B6822F400421A6001F01EFCC6
:10255000F8607B685B68814A934207D8FB68804AD1
:10256000934294BF01230023DBB206E0FB687D4A5F
:10257000934294BF01230023DBB2002B01D001233F
:10258000E7E0FB68784AA2FB03239B0CBB607B68F7
:102590001B685B6823F03F017B681B68BA680A43CD
:1025A0005A607B681B681B6A23F03F017B685B688D
:1025B0006A4A934202D8BB68013309E0BB684FF412
:1025C000967202FB03F3694AA2FB03239B090133C2
:1025D0007A6812680B4313627B681B68DB6923F41B
:1025E0004F4222F0FF027B685B685C498B4219D83E
:1025F000FB68591E7B685B685B00B1FBF3F3591CF9
:1026000040F6FC730B40002B0AD0FB68591E7B6818
:102610005B685B00B1FBF3F30133C3F30B0351E0E1
:1026200004234FE07B689B68002B11D1FB68581E88
:102630007B6859680B465B000B44B0FBF3F3013336
:10264000C3F30B03002B0CBF01230023DBB212E00A
:10265000FB68581E7B6859680B469B000B44990029
:102660000B44B0FBF3F30133C3F30B03002B0CBF9C
:1026700001230023DBB2002B01D0012322E07B6881
:102680009B68002B0ED1FB68581E7B6859680B466F
:102690005B000B44B0FBF3F30133C3F30B0343F4D0
:1026A00000430FE0FB68581E7B6859680B469B008F
:1026B0000B4499000B44B0FBF3F30133C3F30B035A
:1026C00043F44043796809681343CB617B681B6816
:1026D0001B6823F0C0017B68DA697B681B6A1A43B8
:1026E0007B681B680A431A607B681B689B6823F43D
:1026F000034323F0FF037A6811697A68D2681143B3
:102700007A6812680B4393607B681B68DB6823F070
:10271000FF017B685A697B689B691A437B681B6869
:102720000A43DA607B681B681A687B681B6842F0A2
:1027300001021A607B6800221A647B68202283F8F9
:102740003D207B6800221A637B68002283F83E20CC
:10275000002318461037BD4680BD00BFA08601008B
:102760007F841E00FF083D0083DE1B43D34D6210B3
:1027700080B588B002AFF8607A601A460B467B815C
:1027800013463B81FFF74AFB7861FB6893F83D30C5
:10279000DBB2202B40F0E0807B69009319230122FB
:1027A0007049F86800F09EFC0346002B01D002231C
:1027B000D3E0FB6893F83C30012B01D10223CCE03D
:1027C000FB68012283F83C20FB681B681B6803F050
:1027D0000103012B07D0FB681B681A68FB681B68A4
:1027E00042F001021A60FB681B681A68FB681B68EC
:1027F00022F400621A60FB68212283F83D20FB6806
:10280000102283F83E20FB6800221A64FB687A6875
:102810005A62FB683A895A85FB685B8D9AB2FB68FD
:102820001A85FB68504ADA6279897B693A6AF868E6
:1028300000F008FB0346002B01D001238DE00023AC
:102840003B61FB681B685B693B61FB681B689B69BC
:102850003B613B6966E07A69396AF86800F05CFDC3
:102860000346002B0DD0FB681B6C042B07D1FB68C3
:102870001B681A68FB681B6842F400721A60012327
:102880006BE0FB685B6A1A78FB681B681A61FB687F
:102890005B6A5A1CFB685A62FB685B8D9BB2013B0A
:1028A0009AB2FB685A85FB681B8D013B9AB2FB68A4
:1028B0001A85FB681B685B6903F00403042B1BD1BA
:1028C000FB681B8D002B17D0FB685B6A1A78FB68CE
:1028D0001B681A61FB685B6A5A1CFB685A62FB68DA
:1028E0005B8D9BB2013B9AB2FB685A85FB681B8DDE
:1028F000013B9AB2FB681A857A69396AF86800F078
:1029000053FD0346002B0DD0FB681B6C042B07D135
:10291000FB681B681A68FB681B6842F400721A6047
:1029200001231AE0FB681B8D002B94D1FB681B6808
:102930001A68FB681B6842F400721A60FB68202268
:1029400083F83D20FB68002283F83E20FB680022CC
:1029500083F83C20002300E0022318461837BD46C8
:1029600080BD00BF020010000000FFFF80B58CB0EA
:1029700002AFF8607A601A460B467B8113463B81B2
:1029800000233B62FFF74AFA7862FB6893F83D3018
:10299000DBB2202B40F04B827B6A0093192301228B
:1029A0007F49F86800F09EFB0346002B01D002230C
:1029B0003EE2FB6893F83C30012B01D1022337E261
:1029C000FB68012283F83C20FB681B681B6803F04E
:1029D0000103012B07D0FB681B681A68FB681B68A2
:1029E00042F001021A60FB681B681A68FB681B68EA
:1029F00022F400621A60FB68222283F83D20FB6803
:102A0000102283F83E20FB6800221A64FB687A6873
:102A10005A62FB683A895A85FB685B8D9AB2FB68FB
:102A20001A85FB685F4ADA6279897B6A3A6BF868D3
:102A300000F08AFA0346002B01D00123F8E1FB687D
:102A40001B8D002B13D10023FB61FB681B685B69A6
:102A5000FB61FB681B689B69FB61FB69FB681B688A
:102A60001A68FB681B6842F400721A60CCE1FB68CC
:102A70001B8D012B1ED1FB681B681A68FB681B6845
:102A800022F480621A6072B600BF0023BB61FB684B
:102A90001B685B69BB61FB681B689B69BB61BB69A9
:102AA000FB681B681A68FB681B6842F400721A60B6
:102AB00062B635E0FB681B8D022B1ED1FB681B68DC
:102AC0001A68FB681B6842F400621A6072B600BFA5
:102AD00000237B61FB681B685B697B61FB681B688B
:102AE0009B697B617B69FB681B681A68FB681B68D4
:102AF00022F480621A6062B612E0FB681B681A68F2
:102B0000FB681B6842F480621A6000233B61FB682B
:102B10001B685B693B61FB681B689B693B613B69A8
:102B200072E1FB681B8D032B00F21F81FB681B8D7C
:102B3000012B23D17A6A396BF86800F07DFC0346DB
:102B4000002B01D0012373E1FB681B681A69FB6845
:102B50005B6AD2B21A70FB685B6A5A1CFB685A62E5
:102B6000FB681B8D013B9AB2FB681A85FB685B8D85
:102B70009BB2013B9AB2FB685A8545E1FB681B8D0D
:102B8000022B52D17B6A00933B6B00220649F86806
:102B900000F0A8FA0346002B08D0012348E100BF4B
:102BA000020010000000FFFF0400010072B600BF29
:102BB000FB681B681A68FB681B6842F400721A60A5
:102BC000FB681B681A69FB685B6AD2B21A70FB6803
:102BD0005B6A5A1CFB685A62FB681B8D013B9AB208
:102BE000FB681A85FB685B8D9BB2013B9AB2FB6860
:102BF0005A8562B600BFFB681B681A69FB685B6A8E
:102C0000D2B21A70FB685B6A5A1CFB685A62FB6896
:102C10001B8D013B9AB2FB681A85FB685B8D9BB2EA
:102C2000013B9AB2FB685A85EEE07B6A00933B6BEE
:102C300000228149F86800F055FA0346002B01D0C4
:102C40000123F5E0FB681B681A68FB681B6822F427
:102C500080621A6072B600BFFB681B681A69FB6865
:102C60005B6AD2B21A70FB685B6A5A1CFB685A62D4
:102C7000FB681B8D013B9AB2FB681A85FB685B8D74
:102C80009BB2013B9AB2FB685A856C4B1B68DB0810
:102C90006B4AA2FB03231A0A13469B001344DA0073
:102CA000D31A3B623B6A013B3B623B6A002B18D163
:102CB000FB6800221A63FB68202283F83D20FB6832
:102CC000002283F83E20FB681B6C43F02002FB6867
:102CD0001A6462B600BFFB68002283F83C2001231F
:102CE000A6E0FB681B685B6903F00403042BD9D1E1
:102CF000FB681B681A68FB681B6842F400721A6064
:102D0000FB681B681A69FB685B6AD2B21A70FB68C1
:102D10005B6A5A1CFB685A62FB681B8D013B9AB2C6
:102D2000FB681A85FB685B8D9BB2013B9AB2FB681E
:102D30005A8562B600BFFB681B681A69FB685B6A4C
:102D4000D2B21A70FB685B6A5A1CFB685A62FB6855
:102D50001B8D013B9AB2FB681A85FB685B8D9BB2A9
:102D6000013B9AB2FB685A854EE07A6A396BF86883
:102D700000F062FB0346002B01D0012358E0FB6802
:102D80001B681A69FB685B6AD2B21A70FB685B6ADF
:102D90005A1CFB685A62FB681B8D013B9AB2FB68A8
:102DA0001A85FB685B8D9BB2013B9AB2FB685A8522
:102DB000FB681B685B6903F00403042B24D1FB68E8
:102DC0001B8D032B07D1FB681B681A68FB681B6807
:102DD00022F480621A60FB681B681A69FB685B6AF0
:102DE000D2B21A70FB685B6A5A1CFB685A62FB68B5
:102DF0001B8D013B9AB2FB681A85FB685B8D9BB209
:102E0000013B9AB2FB685A85FB681B8D002B7FF44F
:102E100088AEFB68202283F83D20FB68002283F8FF
:102E20003E20FB68002283F83C20002300E00223C0
:102E300018462837BD4680BD040001001000002060
:102E400089B5F81480B588B002AFF8607A603B604D
:102E50000B467B81FB68DB6A7B617B69082B06D0B4
:102E60007B69012B03D07B6913F5803F08D1FB6898
:102E70001B681A68FB681B6842F480721A600BE0DA
:102E8000FB681B6B122B07D1FB681B681A68FB6879
:102E90001B6842F480721A603B6800937B680022D2
:102EA0004FF00111F86800F01DF90346002B0DD01A
:102EB000FB681B681B6803F48073B3F5807F03D144
:102EC000FB684FF400721A64032335E0FB681B694A
:102ED000B3F5804F08D17B89DBB21A46FB681B68CB
:102EE00002F0FE021A611BE07B89DB11DBB203F00A
:102EF0000603DBB263F00F03DAB2FB681B681A61EA
:102F00003B687A680E49F86800F066F90346002BC2
:102F100001D0012310E07B89DAB2FB681B681A61DB
:102F20003B687A680749F86800F056F90346002BB9
:102F300001D0012300E0002318461837BD4680BDAC
:102F4000080001000200010080B588B002AFF860FF
:102F50007A603B600B467B81FB68DB6A7B61FB68C8
:102F60001B681A68FB681B6842F480621A607B6900
:102F7000082B06D07B69012B03D07B6913F5803FBA
:102F800008D1FB681B681A68FB681B6842F48072F2
:102F90001A600BE0FB681B6B112B07D1FB681B68E9
:102FA0001A68FB681B6842F480721A603B680093E1
:102FB0007B6800224FF00111F86800F093F8034697
:102FC000002B0DD0FB681B681B6803F48073B3F5FE
:102FD000807F03D1FB684FF400721A64032379E009
:102FE000FB681B69B3F5804F08D17B89DBB243F0E6
:102FF0000103DAB2FB681B681A615FE07B89DB11B1
:10300000DBB203F00603DBB263F00F03DAB2FB6856
:103010001B681A613B687A683049F86800F0DCF890
:103020000346002B01D0012354E07B89DAB2FB6810
:103030001B681A613B687A682949F86800F0CCF887
:103040000346002B01D0012344E000233B61FB68D1
:103050001B685B693B61FB681B689B693B613B6963
:10306000FB681B681A68FB681B6842F480721A6070
:103070003B6800937B6800224FF00111F86800F074
:1030800031F80346002B0DD0FB681B681B6803F466
:103090008073B3F5807F03D1FB684FF400721A642C
:1030A000032317E07B89DB11DBB203F00603DBB2FD
:1030B00063F00E03DAB2FB681B681A613B687A683A
:1030C0000749F86800F088F80346002B01D0012377
:1030D00000E0002318461837BD4680BD08000100F7
:1030E0000200010080B584B000AFF860B9603B60B9
:1030F0001346FB7148E03B68B3F1FF3F44D0FEF755
:103100008DFE0246BB69D31A3A689A4202D33B68E5
:10311000002B39D1BB681B0CDBB2012B0DD1FB6836
:103120001B685B69DA43BB6813409BB2002B0CBF82
:1031300001230023DBB21A460CE0FB681B689B6985
:10314000DA43BB6813409BB2002B0CBF0123002362
:10315000DBB21A46FB799A4216D1FB6800221A6349
:10316000FB68202283F83D20FB68002283F83E2084
:10317000FB681B6C43F02002FB681A64FB680022AA
:1031800083F83C20012323E0BB681B0CDBB2012B3E
:103190000DD1FB681B685B69DA43BB6813409BB2C7
:1031A000002B0CBF01230023DBB21A460CE0FB68A6
:1031B0001B689B69DA43BB6813409BB2002B0CBFB2
:1031C00001230023DBB21A46FB799A4293D00023F5
:1031D00018461037BD4680BD80B584B000AFF8609A
:1031E000B9607A603B6071E0FB681B685B6903F45F
:1031F0008063B3F5806F23D1FB681B681A68FB6896
:103200001B6842F400721A60FB681B686FF48062EE
:103210005A61FB6800221A63FB68202283F83D2074
:10322000FB68002283F83E20FB681B6C43F004021D
:10323000FB681A64FB68002283F83C20012367E0E6
:103240007B68B3F1FF3F41D0FEF7E8FD02463B68E3
:10325000D31A7A689A4202D37B68002B36D1BB68B6
:103260001B0CDBB2012B0CD1FB681B685B69DA43DA
:10327000BB6813409BB2002B14BF01230023DBB2B9
:103280000BE0FB681B689B69DA43BB6813409BB289
:10329000002B14BF01230023DBB2002B16D0FB68E8
:1032A00000221A63FB68202283F83D20FB6800227D
:1032B00083F83E20FB681B6C43F02002FB681A6415
:1032C000FB68002283F83C20012321E0BB681B0C33
:1032D000DBB2012B0CD1FB681B685B69DA43BB686E
:1032E00013409BB2002B14BF01230023DBB20BE081
:1032F000FB681B689B69DA43BB6813409BB2002BD9
:1033000014BF01230023DBB2002B7FF46DAF002339
:1033100018461037BD4680BD80B584B000AFF86058
:10332000B9607A6034E0F86800F0E3F80346002BF7
:1033300001D0012334E0BB68B3F1FF3F28D0FEF792
:103340006DFD02467B68D31ABA689A4202D3BB6805
:10335000002B1DD1FB681B685B6903F08003802B89
:1033600016D0FB6800221A63FB68202283F83D20F8
:10337000FB68002283F83E20FB681B6C43F02002B0
:10338000FB681A64FB68002283F83C20012307E0F5
:10339000FB681B685B6903F08003802BC3D10023AB
:1033A00018461037BD4680BD80B584B000AFF860C8
:1033B000B9607A6034E0F86800F09BF80346002BAF
:1033C00001D0012334E0BB68B3F1FF3F28D0FEF702
:1033D00025FD02467B68D31ABA689A4202D3BB68BD
:1033E000002B1DD1FB681B685B6903F00403042BF1
:1033F00016D0FB6800221A63FB68202283F83D2068
:10340000FB68002283F83E20FB681B6C43F020021F
:10341000FB681A64FB68002283F83C20012307E064
:10342000FB681B685B6903F00403042BC3D1002312
:1034300018461037BD4680BD80B584B000AFF86037
:10344000B9607A6049E0FB681B685B6903F01003B0
:10345000102B19D1FB681B686FF010025A61FB68D2
:1034600000221A63FB68202283F83D20FB680022BB
:1034700083F83E20FB681A6CFB681A64FB68002224
:1034800083F83C20012330E0FEF7C8FC02467B684D
:10349000D31ABA689A4202D3BB68002B1DD1FB68CD
:1034A0001B685B6903F04003402B16D0FB680022C9
:1034B0001A63FB68202283F83D20FB68002283F812
:1034C0003E20FB681B6C43F02002FB681A64FB681B
:1034D000002283F83C20012307E0FB681B685B693E
:1034E00003F04003402BAED1002318461037BD46F1
:1034F00080BD80B483B000AF78607B681B685B6977
:1035000003F48063B3F5806F1BD17B681B686FF495
:1035100080625A617B6800221A637B68202283F8EC
:103520003D207B68002283F83E207B681B6C43F0C3
:1035300004027B681A647B68002283F83C20012324
:1035400000E0002318460C37BD4680BC704780B5AC
:1035500084B000AF78607B68002B01D1012336E096
:103560007B681B684CF6CC421A607B681B6845F28E
:1035700055521A607B681B687A6852685A607B688B
:103580001B687A6892689A60FEF748FCF86011E060
:10359000FEF744FC0246FB68D31A41F23C329342E8
:1035A00008D97B681B68DB6803F00303002B01D09C
:1035B00003230CE07B681B68DB6803F00303002B2C
:1035C000E6D17B681B684AF6AA221A6000231846D7
:1035D0001037BD4680BD80B483B000AF78607B6893
:1035E0001B684AF6AA221A60002318460C37BD460B
:1035F00080BC704780B586B000AF78607B68002BD8
:1036000001D1012372E27B681B6803F00103002BE8
:1036100000F08780924B5B6803F00C03042B0CD006
:103620008F4B5B6803F00C03082B12D18C4B5B684B
:1036300003F48033B3F5803F0BD1894B1B6803F44F
:103640000033002B6CD07B685B68002B68D10123B2
:103650004CE27B685B68B3F5803F06D1804B1B680A
:103660007F4A43F4803313602EE07B685B68002B55
:103670000CD17B4B1B687A4A23F480331360784B60
:103680001B68774A23F4802313601DE07B685B6826
:10369000B3F5A02F0CD1724B1B68714A43F4802301
:1036A00013606F4B1B686E4A43F4803313600BE06A
:1036B0006B4B1B686A4A23F480331360684B1B68AA
:1036C000674A23F4802313607B685B68002B13D068
:1036D000FEF7A4FB386108E0FEF7A0FB02463B6959
:1036E000D31A642B01D9032300E25D4B1B6803F45A
:1036F0000033002BF0D014E0FEF790FB386108E0B7
:10370000FEF78CFB02463B69D31A642B01D90323D5
:10371000ECE1534B1B6803F40033002BF0D100E0C5
:1037200000BF7B681B6803F00203002B63D04C4B87
:103730005B6803F00C03002B0BD0494B5B6803F074
:103740000C03082B1CD1464B5B6803F48033002B21
:1037500016D1434B1B6803F00203002B05D07B6896
:103760001B69012B01D00123C0E13D4B1B6823F0F5
:10377000F8027B685B69DB00394913430B603AE070
:103780007B681B69002B20D0364B01221A60FEF7A4
:1037900045FB386108E0FEF741FB02463B69D31A5E
:1037A000022B01D90323A1E12D4B1B6803F0020377
:1037B000002BF0D02A4B1B6823F0F8027B685B6972
:1037C000DB00274913430B6015E0264B00221A60EB
:1037D000FEF724FB386108E0FEF720FB02463B6958
:1037E000D31A022B01D9032380E11D4B1B6803F080
:1037F0000203002BF0D17B681B6803F00803002B49
:103800003AD07B689B69002B19D0174B01221A60B4
:10381000FEF704FB386108E0FEF700FB02463B6957
:10382000D31A022B01D9032360E10D4B5B6A03F02D
:103830000203002BF0D0012000F0D0FA1CE00A4B6C
:1038400000221A60FEF7EAFA38610FE0FEF7E6FAA6
:1038500002463B69D31A022B08D9032346E100BF75
:10386000001002400000424280044242924B5B6AD8
:1038700003F00203002BE9D17B681B6803F004030B
:10388000002B00F0A6800023FB758B4BDB6903F057
:103890008053002B0DD1884BDB69874A43F080535E
:1038A000D361854BDB6903F08053BB60BB680123A8
:1038B000FB75824B1B6803F48073002B18D17F4B80
:1038C0001B687E4A43F480731360FEF7A7FA3861E1
:1038D00008E0FEF7A3FA02463B69D31A642B01D92C
:1038E000032303E1754B1B6803F48073002BF0D0B6
:1038F0007B68DB68012B06D16F4B1B6A6E4A43F075
:10390000010313622DE07B68DB68002B0CD16A4B4E
:103910001B6A694A23F001031362674B1B6A664AFC
:1039200023F0040313621CE07B68DB68052B0CD1D9
:10393000614B1B6A604A43F0040313625E4B1B6ACF
:103940005D4A43F0010313620BE05B4B1B6A5A4A6A
:1039500023F001031362584B1B6A574A23F00403F8
:1039600013627B68DB68002B15D0FEF757FA3861CD
:103970000AE0FEF753FA02463B69D31A41F2883255
:10398000934201D90323B1E04B4B1B6A03F00203BE
:10399000002BEED014E0FEF741FA38610AE0FEF7A2
:1039A0003DFA02463B69D31A41F28832934201D96B
:1039B00003239BE0404B1B6A03F00203002BEED174
:1039C000FB7D012B05D13C4BDB693B4A23F0805347
:1039D000D3617B68DB69002B00F08780364B5B6826
:1039E00003F00C03082B61D07B68DB69022B46D106
:1039F000334B00221A60FEF711FA386108E0FEF737
:103A00000DFA02463B69D31A022B01D903236DE05C
:103A1000294B1B6803F00073002BF0D17B681B6AF5
:103A2000B3F5803F08D1244B5B6823F400327B68F8
:103A30009B68214913434B601F4B5B6823F474124E
:103A40007B68196A7B685B6A0B431B4913434B60B5
:103A50001B4B01221A60FEF7E1F9386108E0FEF71E
:103A6000DDF902463B69D31A022B01D903233DE05D
:103A7000114B1B6803F00073002BF0D035E0104BA6
:103A800000221A60FEF7CAF9386108E0FEF7C6F9AD
:103A900002463B69D31A022B01D9032326E0064BC9
:103AA0001B6803F00073002BF0D11EE07B68DB691C
:103AB000012B07D1012319E00010024000700040E3
:103AC000600042420B4B5B68FB60FB6803F4803292
:103AD0007B681B6A9A4206D1FB6803F470127B680C
:103AE0005B6A9A4201D0012300E000231846183790
:103AF000BD4680BD0010024080B584B000AF786044
:103B000039607B68002B01D10123D0E06A4B1B6830
:103B100003F007033A689A4210D9674B1B6823F0F9
:103B2000070265493B6813430B60634B1B6803F056
:103B300007033A689A4201D00123B8E07B681B680A
:103B400003F00203002B20D07B681B6803F0040302
:103B5000002B05D0594B5B68584A43F4E06353602F
:103B60007B681B6803F00803002B05D0534B5B6890
:103B7000524A43F460535360504B5B6823F0F002A9
:103B80007B689B684D4913434B607B681B6803F05F
:103B90000103002B40D07B685B68012B07D1474BAA
:103BA0001B6803F40033002B15D101237FE07B68F1
:103BB0005B68022B07D1414B1B6803F00073002B9D
:103BC00009D1012373E03D4B1B6803F00203002B76
:103BD00001D101236BE0394B5B6823F003027B6862
:103BE0005B68364913434B60FEF718F9F8600AE04A
:103BF000FEF714F90246FB68D31A41F28832934269
:103C000001D9032353E02D4B5B6803F00C027B6862
:103C10005B689B009A42EBD1274B1B6803F00703BC
:103C20003A689A4210D2244B1B6823F007022249BB
:103C30003B6813430B60204B1B6803F007033A6893
:103C40009A4201D0012332E07B681B6803F0040331
:103C5000002B08D0194B5B6823F4E0627B68DB68BB
:103C6000164913434B607B681B6803F00803002B65
:103C700009D0124B5B6823F460527B681B69DB0040
:103C80000E4913434B6000F021F802460B4B5B6872
:103C90001B0903F00F030A49CB5C22FA03F3094A1C
:103CA0001360094B1B681846FEF776F80023184688
:103CB0001037BD4680BD00BF00200240001002400A
:103CC000E8A60008100000201400002080B487B08F
:103CD00000AF0023FB600023BB6000237B61002357
:103CE0007B6000233B611E4B5B68FB60FB6803F05D
:103CF0000C03042B02D0082B03D027E0194B3B61A7
:103D000027E0FB689B0C03F00F03174AD35C7B6032
:103D1000FB6803F48033002B10D0114B5B685B0C05
:103D200003F00103114AD35CBB607B680D4A03FBBF
:103D300002F2BB68B2FBF3F37B6104E07B680C4AE0
:103D400002FB03F37B617B693B6102E0094B3B6152
:103D500000BF3B6918461C37BD4680BC704700BF9A
:103D6000001002400024F40000A7000810A700087B
:103D700000093D0000127A0080B400AF024B1B68BE
:103D80001846BD4680BC70471000002080B500AFCB
:103D9000FFF7F2FF0246054B5B681B0A03F00703BF
:103DA0000349CB5C22FA03F3184680BD00100240A1
:103DB000F8A6000880B500AFFFF7DEFF0246054B0E
:103DC0005B68DB0A03F007030349CB5C22FA03F3C9
:103DD000184680BD00100240F8A6000880B485B0E7
:103DE00000AF78600A4B1B680A4AA2FB03235B0AF8
:103DF0007A6802FB03F3FB6000BFFB685A1EFA609F
:103E0000002BF9D100BF00BF1437BD4680BC7047FE
:103E100010000020D34D621080B582B000AF7860F2
:103E20007B68002B01D1012376E07B685B6A002B65
:103E300008D17B685B68B3F5827F09D07B6800227C
:103E4000DA6105E07B6800221A617B6800225A6112
:103E50007B6800229A627B6893F85130DBB2002BBA
:103E600006D17B68002283F850207868FDF75CFD5E
:103E70007B68022283F851207B681B681A687B6884
:103E80001B6822F040021A607B685B6803F4827250
:103E90007B689B6803F404431A437B68DB6803F484
:103EA00000631A437B681B6903F002031A437B68B3
:103EB0005B6903F001031A437B689B6903F4007399
:103EC0001A437B68DB6903F038031A437B681B6A7B
:103ED00003F0800342EA03017B689B6A03F400520B
:103EE0007B681B680A431A607B689B691A0C7B68B5
:103EF0001B6802F004025A607B681B68DA697B6801
:103F00001B6822F40062DA617B6800225A657B68D4
:103F1000012283F85120002318460837BD4680BD92
:103F200080B588B000AFF860B9603B601346FB8095
:103F3000FDF774FFF861FB887B83FB6893F85130D1
:103F4000DBB2012B01D002232AE1BB68002B02D097
:103F5000FB88002B01D1012322E1FB6893F850304C
:103F6000012B01D102231BE1FB68012283F85020C1
:103F7000FB68032283F85120FB6800225A65FB6826
:103F8000BA681A63FB68FA889A86FB68FA88DA8648
:103F9000FB6800229A63FB6800229A87FB68002274
:103FA000DA87FB6800225A64FB6800221A64FB6807
:103FB0009B68B3F5004F0FD1FB681B681A68FB685C
:103FC0001B6822F040021A60FB681B681A68FB68D5
:103FD0001B6842F480421A60FB681B681B6803F090
:103FE0004003402B07D0FB681B681A68FB681B68FE
:103FF00042F040021A60FB68DB68B3F5006F52D1F3
:10400000FB685B68002B02D07B8B012B45D1FB68E2
:104010001B6B1A88FB681B68DA60FB681B6B9A1CB9
:10402000FB681A63FB68DB8E9BB2013B9AB2FB68AC
:10403000DA8632E0FB681B689B6803F00203022B00
:1040400012D1FB681B6B1A88FB681B68DA60FB687F
:104050001B6B9A1CFB681A63FB68DB8E9BB2013BEF
:104060009AB2FB68DA8618E0FDF7D8FE0246FB69D3
:10407000D31A3A689A4203D83B68B3F1FF3F02D1A2
:104080003B68002B09D1FB68012283F85120FB68B3
:10409000002283F85020032382E0FB68DB8E9BB272
:1040A000002BC7D153E0FB685B68002B02D07B8BF1
:1040B000012B47D1FB681A6BFB681B680C33127825
:1040C0001A70FB681B6B5A1CFB681A63FB68DB8E5B
:1040D0009BB2013B9AB2FB68DA8633E0FB681B684F
:1040E0009B6803F00203022B13D1FB681A6BFB6879
:1040F0001B680C3312781A70FB681B6B5A1CFB6828
:104100001A63FB68DB8E9BB2013B9AB2FB68DA86CE
:1041100018E0FDF783FE0246FB69D31A3A689A421B
:1041200003D83B68B3F1FF3F02D13B68002B09D1B4
:10413000FB68012283F85120FB68002283F850209D
:1041400003232DE0FB68DB8E9BB2002BC6D1FA69FE
:104150003968F86800F05EFB0346002B02D0FB686C
:1041600020225A65FB689B68002B0AD100237B61E3
:10417000FB681B68DB687B61FB681B689B687B6175
:104180007B69FB68012283F85120FB68002283F8D9
:104190005020FB685B6D002B01D0012300E0002361
:1041A00018462037BD4680BD80B58AB000AFF860A4
:1041B000B9607A607B8001237B62FDF72FFE386255
:1041C000FB6893F85130FB77FB685B68BB617B88C9
:1041D000FB82FB7F012B0CD0BB69B3F5827F06D13C
:1041E000FB689B68002B02D1FB7F042B01D00223CC
:1041F0007FE1BB68002B05D07B68002B02D07B8859
:10420000002B01D1012374E1FB6893F85030012B9E
:1042100001D102236DE1FB68012283F85020FB6885
:1042200093F85130DBB2042B03D0FB68052283F8EE
:104230005120FB6800225A65FB687A689A63FB6824
:104240007A88DA87FB687A889A87FB68BA681A6383
:10425000FB687A88DA86FB687A889A86FB6800228F
:104260001A64FB6800225A64FB681B681B6803F031
:104270004003402B07D0FB681B681A68FB681B686B
:1042800042F040021A60FB68DB68B3F5006F7ED134
:10429000FB685B68002B02D0FB8A012B6CD1FB68AA
:1042A0001B6B1A88FB681B68DA60FB681B6B9A1C27
:1042B000FB681A63FB68DB8E9BB2013B9AB2FB681A
:1042C000DA8659E0FB681B689B6803F00203022B47
:1042D0001BD1FB68DB8E9BB2002B16D07B6A012BB7
:1042E00013D1FB681B6B1A88FB681B68DA60FB68DC
:1042F0001B6B9A1CFB681A63FB68DB8E9BB2013B4D
:104300009AB2FB68DA8600237B62FB681B689B68B5
:1043100003F00103012B19D1FB68DB8F9BB2002B4B
:1043200014D0FB681B68DA68FB689B6B92B21A803A
:10433000FB689B6B9A1CFB689A63FB68DB8F9BB2E4
:10434000013B9AB2FB68DA8701237B62FDF766FDC9
:1043500002463B6AD31A3A6B9A420DD83B6BB3F1D3
:10436000FF3F09D0FB68012283F85120FB6800223F
:1043700083F850200323BCE0FB68DB8E9BB2002B4C
:10438000A0D1FB68DB8F9BB2002B9BD182E0FB6846
:104390005B68002B02D0FB8A012B71D1FB681A6B82
:1043A000FB681B680C3312781A70FB681B6B5A1C75
:1043B000FB681A63FB68DB8E9BB2013B9AB2FB6819
:1043C000DA865DE0FB681B689B6803F00203022B42
:1043D0001CD1FB68DB8E9BB2002B17D07B6A012BB4
:1043E00014D1FB681A6BFB681B680C3312781A70C7
:1043F000FB681B6B5A1CFB681A63FB68DB8E9BB265
:10440000013B9AB2FB68DA8600237B62FB681B687B
:104410009B6803F00103012B19D1FB68DB8F9BB272
:10442000002B14D0FB681B68DA68FB689B6BD2B268
:104430001A70FB689B6B5A1CFB689A63FB68DB8FE6
:104440009BB2013B9AB2FB68DA8701237B62FDF7DE
:10445000E5FC02463B6AD31A3A6B9A4203D83B6B9F
:10446000B3F1FF3F02D13B6B002B09D1FB68012266
:1044700083F85120FB68002283F85020032338E0A2
:10448000FB68DB8E9BB2002B9CD1FB68DB8F9BB261
:10449000002B97D13A6A396BF86800F0BBF90346F4
:1044A000002B08D0FB6820225A65FB68002283F8A5
:1044B000502001231DE0FB689B68002B0AD10023DC
:1044C0003B61FB681B68DB683B61FB681B689B68A2
:1044D0003B613B69FB68012283F85120FB680022A5
:1044E00083F85020FB685B6D002B01D0012300E0B6
:1044F000002318462837BD4680BD000080B588B02F
:1045000000AF78607B681B685B68FB617B681B6839
:104510009B68BB61BB699B0903F00103002B0FD1B2
:10452000BB6903F00103002B0AD0FB699B0903F070
:104530000103002B04D07B681B6C78689847BEE0B1
:10454000BB695B0803F00103002B0AD0FB69DB09A0
:1045500003F00103002B04D07B685B6C78689847FC
:10456000ADE0BB695B0903F00103002B06D1BB6919
:104570009B0903F00103002B00F0A180FB695B099C
:1045800003F00103002B00F09A80BB699B0903F044
:104590000103002B23D07B6893F85130DBB2032B4F
:1045A00011D07B685B6D43F004027B685A65002381
:1045B0007B617B681B68DB687B617B681B689B6831
:1045C0007B617B690BE000233B617B681B68DB68D8
:1045D0003B617B681B689B683B613B696FE0BB6923
:1045E0005B0903F00103002B14D07B685B6D43F083
:1045F00001027B685A650023FB607B681B689B682F
:10460000FB607B681B681A687B681B6822F04002AD
:104610001A60FB687B685B6D002B4FD07B681B6862
:104620005A687B681B6822F0E0025A607B680122AE
:1046300083F85120FB6903F00203002B04D1FB69CE
:1046400003F00103002B34D07B681B685A687B6839
:104650001B6822F003025A607B68DB6C002B11D0D0
:104660007B68DB6C174A5A637B68DB6C1846FDF786
:1046700027FD0346002B05D07B685B6D43F04002AD
:104680007B685A657B689B6C002B16D07B689B6CA3
:104690000C4A5A637B689B6C1846FDF711FD034674
:1046A000002B0AD07B685B6D43F040027B685A6543
:1046B00003E0786800F008F800E000BF00BF203792
:1046C000BD4680BDDB46000880B483B000AF786093
:1046D00000BF0C37BD4680BC704780B584B000AFCA
:1046E00078607B685B6AFB60FB680022DA87FB68A6
:1046F0000022DA86F868FFF7E7FF00BF1037BD46F3
:1047000080BD000080B588B000AFF860B9603B6044
:104710001346FB71FDF782FB0246BB6A9B1A3A689F
:104720001344FB61FDF77AFBB861394B1B685B01F1
:104730001B0DFA6902FB03F37B6154E03B68B3F1A4
:10474000FF3F50D0FDF76AFB0246BB69D31AFA69F6
:104750009A4202D9FB69002B3DD1FB681B685A685D
:10476000FB681B6822F0E0025A60FB685B68B3F5E7
:10477000827F11D1FB689B68B3F5004F04D0FB68C2
:104780009B68B3F5806F07D1FB681B681A68FB68EC
:104790001B6822F040021A60FB689B6AB3F5005F59
:1047A0000FD1FB681B681A68FB681B6822F4005273
:1047B0001A60FB681B681A68FB681B6842F40052A9
:1047C0001A60FB68012283F85120FB68002283F8FD
:1047D0005020032317E07B69002B01D10023FB61EC
:1047E0007B69013B7B61FB681B689A68BB6813406F
:1047F000BA689A420CBF01230023DBB21A46FB7948
:104800009A429BD1002318462037BD4680BD00BF89
:104810001000002080B586B002AFF860B9607A6001
:104820007B680093BB6801220221F868FFF76AFFEA
:104830000346002B07D0FB685B6D43F02002FB684A
:104840005A65032313E07B680093BB680022802134
:10485000F868FFF757FF0346002B07D0FB685B6D36
:1048600043F02002FB685A65032300E0002318464A
:104870001037BD4680BD80B582B000AF78607B68E0
:10488000002B01D1012342E07B6893F84130DBB279
:10489000002B06D17B68002283F840207868FDF762
:1048A000D9F87B68242283F841207B681B68DA688A
:1048B0007B681B6822F40052DA60786800F0B8FD6B
:1048C0007B681B681A697B681B6822F490421A6136
:1048D0007B681B685A697B681B6822F02A025A6150
:1048E0007B681B68DA687B681B6842F40052DA60F8
:1048F0007B6800225A647B68202283F841207B6811
:10490000202283F842207B6800225A630023184645
:104910000837BD4680BD80B58AB002AFF860B96087
:104920003B601346FB8000237B61FB6893F84130BA
:10493000DBB2202B75D1BB68002B02D0FB88002B8B
:1049400001D101236EE0FB6800225A64FB6821223A
:1049500083F84120FDF762FA7861FB68FA889A844F
:10496000FB68FA88DA84FB689B68B3F5805F08D13E
:10497000FB681B69002B04D10023FB61BB68BB6192
:1049800003E0BB68FB610023BB612EE03B68009342
:104990007B6900228021F86800F01DFB0346002B94
:1049A00005D0FB68202283F8412003233AE0FB690D
:1049B000002B0BD1BB691B881A46FB681B68C2F32E
:1049C00008025A60BB690233BB6107E0FB691A78D1
:1049D000FB681B685A60FB690133FB61FB68DB8C79
:1049E0009BB2013B9AB2FB68DA84FB68DB8C9BB21A
:1049F000002BCBD13B6800937B6900224021F868F3
:104A000000F0E9FA0346002B05D0FB68202283F86A
:104A10004120032306E0FB68202283F84120002385
:104A200000E0022318462037BD4680BD80B584B023
:104A300000AFF860B9601346FB80FB6893F8423022
:104A4000DBB2202B12D1BB68002B02D0FB88002BDD
:104A500001D101230BE0FB6800221A63FB881A4690
:104A6000B968F86800F010FB034600E0022318461E
:104A70001037BD4680BD000080B5BAB000AF786089
:104A80007B681B681B68C7F8E4307B681B68DB68C1
:104A9000C7F8E0307B681B685B69C7F8DC3000232F
:104AA000C7F8D8300023C7F8D430D7F8E43003F083
:104AB0000F03C7F8D830D7F8D830002B0FD1D7F86C
:104AC000E43003F02003002B09D0D7F8E03003F0E6
:104AD0002003002B03D0786800F0ECFB5BE2D7F8F2
:104AE000D830002B00F0DE80D7F8DC3003F0010373
:104AF000002B06D1D7F8E03003F49073002B00F0C0
:104B0000D180D7F8E43003F00103002B0BD0D7F8A5
:104B1000E03003F48073002B05D07B685B6C43F0BE
:104B200001027B685A64D7F8E43003F00403002BD9
:104B30000BD0D7F8DC3003F00103002B05D07B68E5
:104B40005B6C43F002027B685A64D7F8E43003F0F0
:104B50000203002B0BD0D7F8DC3003F00103002B4D
:104B600005D07B685B6C43F004027B685A64D7F81D
:104B7000E43003F00803002B11D0D7F8E03003F045
:104B80002003002B05D1D7F8DC3003F00103002B04
:104B900005D07B685B6C43F008027B685A647B68D5
:104BA0005B6C002B00F0F281D7F8E43003F02003B7
:104BB000002B08D0D7F8E03003F02003002B02D000
:104BC000786800F077FB7B681B685B6903F0400343
:104BD000002B14BF01230023DBB2C7F8D4307B685D
:104BE0005B6C03F00803002B03D1D7F8D430002B03
:104BF0004FD0786800F081FA7B681B685B6903F02E
:104C00004003002B41D07B681B681433C7F89C30ED
:104C1000D7F89C3053E8003FC7F89830D7F8983061
:104C200023F04003C7F8D0307B681B681433D7F8F3
:104C3000D020C7F8A820C7F8A430D7F8A410D7F818
:104C4000A82041E80023C7F8A030D7F8A030002BF7
:104C5000D9D17B68DB6B002B13D07B68DB6B7E4A82
:104C60005A637B68DB6B1846FDF72AFA0346002B74
:104C700016D07B68DB6B5B6B7A68D26B104698470B
:104C80000EE0786800F093F90AE0786800F08FF998
:104C900006E0786800F08BF97B6800225A6475E1C1
:104CA00000BF73E17B681B6B012B40F04F81D7F88D
:104CB000E43003F01003002B00F04881D7F8E03017
:104CC00003F01003002B00F041810023BB607B68E0
:104CD0001B681B68BB607B681B685B68BB60BB684C
:104CE0007B681B685B6903F04003002B00F0B68013
:104CF0007B68DB6B1B685B68A7F8BE30B7F8BE301B
:104D0000002B00F045817B689B8DB7F8BE209A424E
:104D100080F03E817B68B7F8BE20DA857B68DB6B6C
:104D20009B69202B00F088807B681B680C33C7F8D8
:104D30008830D7F8883053E8003FC7F88430D7F878
:104D4000843023F48073C7F8B8307B681B680C3359
:104D5000D7F8B820C7F89420C7F89030D7F890104B
:104D6000D7F8942041E80023C7F88C30D7F88C306E
:104D7000002BD9D17B681B6814337B677B6F53E8AA
:104D8000003F3B673B6F23F00103C7F8B4307B68FB
:104D90001B681433D7F8B420C7F88020FB67F96F7D
:104DA000D7F8802041E80023BB67BB6F002BE1D11F
:104DB0007B681B6814333B663B6E53E8003FFB6522
:104DC000FB6D23F04003C7F8B0307B681B681433D9
:104DD000D7F8B020FA66BB66B96EFA6E41E80023D8
:104DE0007B667B6E002BE3D17B68202283F8422018
:104DF0007B6800221A637B681B680C33FB64FB6CC6
:104E000053E8003FBB64BB6C23F01003C7F8AC3021
:104E10007B681B680C33D7F8AC20BA657B65796D6D
:104E2000BA6D41E800233B653B6D002BE3D17B6805
:104E3000DB6B1846FDF709F97B6802225A637B6831
:104E40009A8D7B68DB8D9BB2D31A9BB2194678682A
:104E500000F0B6F89CE000BFBF5100087B689A8D57
:104E60007B68DB8D9BB2D31AA7F8CE307B68DB8DD5
:104E70009BB2002B00F08E80B7F8CE30002B00F0F4
:104E800089807B681B680C33BB63BB6B53E8003FB6
:104E90007B637B6B23F49073C7F8C8307B681B6817
:104EA0000C33D7F8C8207A643B64396C7A6C41E8DB
:104EB0000023FB63FB6B002BE3D17B681B6814337F
:104EC0007B627B6A53E8003F3B623B6A23F001034D
:104ED000C7F8C4307B681B681433D7F8C4203A6322
:104EE000FB62F96A3A6B41E80023BB62BB6A002BA4
:104EF000E3D17B68202283F842207B6800221A637A
:104F00007B681B680C333B613B6953E8003FFB60E7
:104F1000FB6823F01003C7F8C0307B681B680C33B4
:104F2000D7F8C020FA61BB61B969FA6941E800238A
:104F30007B617B69002BE3D17B6802225A63B7F85F
:104F4000CE301946786800F03BF823E0D7F8E4301B
:104F500003F08003002B09D0D7F8E03003F0800382
:104F6000002B03D0786800F03EF914E0D7F8E43065
:104F700003F04003002B0ED0D7F8E03003F04003DD
:104F8000002B08D0786800F07DF904E000BF02E053
:104F900000BF00E000BFE837BD4680BD80B483B0ED
:104FA00000AF786000BF0C37BD4680BC704780B44E
:104FB00083B000AF786000BF0C37BD4680BC70473F
:104FC00080B483B000AF78600B467B8000BF0C37A5
:104FD000BD4680BC704780B586B000AFF860B96050
:104FE0003B601346FB713BE03B6AB3F1FF3F37D0B8
:104FF000FCF714FF02463B68D31A3A6A9A4202D37E
:105000003B6A002B01D103233AE0FB681B68DB6895
:1050100003F00403002B23D0BB68802B20D0BB6897
:10502000402B1DD0FB681B681B6803F00803082B8E
:1050300016D100237B61FB681B681B687B61FB68E2
:105040001B685B687B617B69F86800F056F8FB6859
:1050500008225A64FB68002283F8402001230FE0F5
:10506000FB681B681A68BB681340BA689A420CBF99
:1050700001230023DBB21A46FB799A42B4D0002305
:1050800018461837BD4680BD80B485B000AFF860C3
:10509000B9601346FB80FB68BA689A62FB68FA88BD
:1050A0009A85FB68FA88DA85FB6800225A64FB68F7
:1050B000222283F84220FB681B69002B07D0FB6883
:1050C0001B68DA68FB681B6842F48072DA60FB6870
:1050D0001B685A69FB681B6842F001025A61FB6851
:1050E0001B68DA68FB681B6842F02002DA60002364
:1050F00018461437BD4680BC704780B495B000AFE9
:1051000078607B681B680C337B637B6B53E8003FE4
:105110003B633B6B23F49073FB647B681B680C332D
:10512000FA6C3A64FB63F96B3A6C41E80023BB63A9
:10513000BB6B002BE5D17B681B6814333B623B6A79
:1051400053E8003FFB61FB6923F00103BB647B680C
:105150001B681433BA6CFA62BB62B96AFA6A41E836
:1051600000237B627B6A002BE5D17B681B6B012BE4
:1051700019D17B681B680C33FB60FB6853E8003F68
:10518000BB60BB6823F010037B647B681B680C3337
:105190007A6CBA617B617969BA6941E800233B6145
:1051A0003B69002BE5D17B68202283F842207B6895
:1051B00000221A6300BF5437BD4680BC704780B5DB
:1051C00084B000AF78607B685B6AFB60FB6800229C
:1051D000DA85FB680022DA84F868FFF7E8FE00BF92
:1051E0001037BD4680BD80B485B000AF78607B6865
:1051F00093F84130DBB2212B3ED17B689B68B3F53D
:10520000805F14D17B681B69002B10D17B681B6AFF
:10521000FB60FB681B881A467B681B68C2F30802A8
:105220005A607B681B6A9A1C7B681A6208E07B687C
:105230001B6A591C7A6811621A787B681B685A606D
:105240007B68DB8C9BB2013B9BB27A681946D184A8
:10525000002B0FD17B681B68DA687B681B6822F023
:105260008002DA607B681B68DA687B681B6842F042
:105270004002DA60002300E0022318461437BD46DE
:1052800080BC704780B582B000AF78607B681B68D7
:10529000DA687B681B6822F04002DA607B682022B3
:1052A00083F841207868FFF779FE00231846083715
:1052B000BD4680BD80B58CB000AF78607B6893F848
:1052C0004230DBB2222B40F0AE807B689B68B3F5A6
:1052D000805F17D17B681B69002B13D10023FB6211
:1052E0007B689B6ABB627B681B685B689BB2C3F38D
:1052F00008039AB2BB6A1A807B689B6A9A1C7B6817
:105300009A6226E07B689B6AFB620023BB627B6833
:105310009B68B3F5805F07D07B689B68002B0AD140
:105320007B681B69002B06D17B681B685B68DAB25F
:10533000FB6A1A7008E07B681B685B68DBB203F0ED
:105340007F03DAB2FB6A1A707B689B6A5A1C7B681F
:105350009A627B68DB8D9BB2013B9BB27A681946EF
:10536000D185002B5DD17B681B68DA687B681B6880
:1053700022F02002DA607B681B68DA687B681B68B1
:1053800022F48072DA607B681B685A697B681B684C
:1053900022F001025A617B68202283F842207B6858
:1053A00000225A637B681B6B012B35D17B6800227E
:1053B0001A637B681B680C337B617B6953E8003F91
:1053C0003B613B6923F010037B627B681B680C33F5
:1053D0007A6A3A62FB61F9693A6A41E80023BB6183
:1053E000BB69002BE5D17B681B681B6803F01003C9
:1053F000102B0AD10023FB607B681B681B68FB60D5
:105400007B681B685B68FB60FB687B689B8D19464B
:105410007868FFF7D5FD02E0786800F06DFC0023A6
:1054200002E0002300E0022318463037BD4680BD6D
:1054300080B584B000AF78607B681B681B6923F47B
:1054400040517B68DA687B681B680A431A617B6895
:105450009A687B681B691A437B685B691343BB606E
:105460007B681B68DB6823F4B05323F00C037A6875
:105470001268B9680B43D3607B681B685B6923F4CF
:1054800040717B689A697B681B680A435A617B6834
:105490001B682C4A934203D1FEF78CFCF86002E0B3
:1054A000FEF774FCF860FA6813469B0013449A00F8
:1054B0001A447B685B689B00B2FBF3F3224AA2FBB1
:1054C00003235B091901FA6813469B0013449A00F1
:1054D0001A447B685B689B00B2FBF3F21A4BA3FB98
:1054E00002035B09642000FB03F3D31A1B01323370
:1054F000154AA2FB03235B0903F0F0031944FA6881
:1055000013469B0013449A001A447B685B689B0017
:10551000B2FBF3F20C4BA3FB02035B09642000FB1C
:1055200003F3D31A1B013233074AA2FB03235B099F
:1055300003F00F027B681B680A449A6000BF1037B3
:10554000BD4680BD003801401F85EB5180B485B059
:1055500000AFF860B9607A603B60FB68BA689A6037
:10556000FB687A68DA60FB684FF07E525A60FB682D
:105570003A681A6000BF1437BD4680BC7047B0B5AA
:1055800082B000AF786039607B685A687B689B683E
:1055900019461046FBF7EEFA03461A467B685A6036
:1055A0007B685C687B685A687B68DB6819461046D4
:1055B000FBF7E0FA034619462046FBF797FC034643
:1055C0001A467B681A617B681C687B681D697B686A
:1055D0001B6819463868FBF7CBFA0346194628467C
:1055E000FBF7D0FB034619462046FBF7C3FA0346F8
:1055F0001A467B681A607B681B6919464FF07E501B
:10560000FBF7B6FA03461A467B685B6819461046F4
:10561000FBF7B8FB03461A467B685A607B681B6839
:1056200018460837BD46B0BD80B586B002AF034608
:105630000A46FB801346BB80FB881B0A9BB2DBB289
:105640003B72FB88DBB27B72BB881B0A9BB2DBB26E
:10565000BB72BB88DBB2FB7207F108024FF0FF336D
:1056600000930423A0210548FDF782F80346FB734D
:10567000FB7B18461037BD4680BD00BF800200206E
:1056800080B586B002AF03463960FB80FB881B0AF9
:105690009BB2DBB23B73FB88DBB27B7307F10C027E
:1056A0004FF0FF3300930223A0211448FDF760F868
:1056B0000346FB73FB7B002B01D0FB7B19E007F15A
:1056C00008024FF0FF3300930223A1210B48FDF79E
:1056D0004DF90346FB73FB7B002B01D0FB7B08E0FD
:1056E0003B7A1B029BB27A7A13439AB23B681A80C8
:1056F000002318461037BD4680BD00BF8002002041
:1057000080B485B000AFF860B9607A607B80FB68D8
:10571000BA689A60FB687A681A60FB687A889A802F
:1057200000BF1437BD4680BC704780B586B002AF5D
:1057300078600B46FB7007F10C0300210A461A80C3
:105740000A469A70FB789B105BB203F001035BB2D0
:1057500043F006035BB2DBB23B73FB789B01DBB229
:105760007B730023BB7307F1080300210A461A80EC
:105770000A469A707B6818687B689B8800221946E5
:10578000FCF79AFE7B68986807F1080207F10C01A4
:105790000A2300930323FEF707FD7B6818687B68E4
:1057A0009B8801221946FCF787FE7B7A1BB21B02FD
:1057B0001BB203F470631AB2BB7A1BB213431BB261
:1057C0009BB2C3F30B039BB218461037BD4680BD96
:1057D00080B485B000AFF860B9607A607B80FB6808
:1057E000BA681A60FB687A689A60FB687A889A805F
:1057F00000BF1437BD4680BC7047000080B584B040
:1058000000AF78607B681B6801221B491846FFF7D0
:105810000DF97B681B685B68FB60F868FBF75AFA58
:10582000034619461548FBF761FB0346BB60144964
:10583000B868FBF7A7FA03464FF07C511846FBF710
:1058400099F903461846FBF713FC03460D4A13600B
:105850000C4B1B68002B02D10A4B01221A607B689B
:1058600098687B689B8800221946FCF725FE00BFDC
:105870001037BD4680BD00BFE003002000E02B468E
:10588000000060401C00002080B584B000AFF860CC
:10589000B9601346FB80FB689868FB689B8801220F
:1058A0001946FCF709FEFB681868FA884FF0FF33C9
:1058B000B968FFF730F8FB689868FB689B8800229E
:1058C0001946FCF7F9FD00BF1037BD4680BD00004A
:1058D00080B582B000AF7860064800F021FA7B689E
:1058E0001B68012203491846FFF7A0F800BF0837DC
:1058F000BD4680BDE003002080B500AFFCF78EFA06
:105900000346184680BD000080B487B000AF034650
:10591000FB714FF6FF737B610023FB740023FB7464
:1059200025E0FB7C1D4A13449B781A467B69534053
:105930007B610023BB740123BB7412E07B6903F01D
:105940000103BB607B695B087B61BB68002B05D0F2
:105950007B6983F4204383F001037B61BB7C0133CB
:10596000BB74BB7C082BE9D9FB7C0133FB74FA7C4C
:10597000FB799A42D5D37B691B0AFB607B691B02CA
:10598000FA6813437B617B699BB27B617B699BB245
:1059900018461C37BD4680BC704700BFF00300208E
:1059A00080B485B000AF0346FB710B4BDB78FB7313
:1059B000094B1A78084B9A70FB7B803BDAB2064B96
:1059C000DA70054AFB791371034B03225A7000BF4A
:1059D0001437BD4680BC7047F003002080B582B00C
:1059E00000AF544B5B78023B524A13449B781BB286
:1059F0001B021AB24F4B5B78013B4E490B449B781C
:105A00001BB213431BB2BB804A4B5B78023BDBB239
:105A10001846FFF779FF03461A46BB88934202D027
:105A20006FF0050382E00023FB710023BB710023AC
:105A3000BB710CE0BB79404AD25C3E4BDB789A42AA
:105A400002D10123FB7105E0BB790133BB71BB7946
:105A5000072BEFD9FB7983F00103DBB2002B01D0D8
:105A6000012363E000237B80324BDB78033B0D2B6B
:105A70005BD801A252F823F02B5B00082B5B0008D7
:105A80002B5B0008B15A00082B5B00082B5B000859
:105A90002B5B00082B5B00082B5B00082B5B0008CE
:105AA0002B5B00082B5B00082B5B0008DD5A00080D
:105AB000204B5B791AB21F4B1B791BB21B021BB226
:105AC00013431BB27B807B887B707B789AB2194B27
:105AD000B3F86C309A4225D9022327E0154B5B7945
